:1008C6007E01EFFD7C00700A308003020B0A1E02D7
:1008D6000B0AED64014C700A308103020B0AFE021A
:1008E6000B0AED64024C700A308203020B0AFE0208
:1008F6000B0AED64034C700A308303020B0AFE02F6
:100906000B0AED64044C700A308403020B0AFE02E3
:100916000B0AED64054C700A308503020B0AFE02D1
:100926000B0AED64064C700A308603020B0AFE02BF
:100936000B0AED64074C700A308703020B0AFE02AD
:100946000B0AED64104C700A309003020B0AFE028B
:100956000B0AED64114C700A309103020B0AFE0279
:100966000B0AED64124C700A309203020B0AFE0267
:100976000B0AED64134C700A309303020B0AFE0255
:100986000B0AED64144C700A309403020B0AFE0243
:100996000B0AED64154C700A309503020B0AFE0231
:1009A6000B0AED64164C700A309603020B0AFE021F
:1009B6000B0AED64174C700A309703020B0AFE020D
:1009C6000B0AED64204C700A30A003020B0AFE02EB
:1009D6000B0AED64214C700A30A103020B0AFE02D9
:1009E6000B0AED64224C700A30A203020B0AFE02C7
:1009F6000B0AED64234C700A30A303020B0AFE02B5
:100A06000B0AED64244C700A30A403020B0AFE02A2
:100A16000B0AED64254C700A30A503020B0AFE0290
:100A26000B0AED64264C700A30A603020B0AFE027E
:100A36000B0AED64274C700A30A703020B0AFE026C
:100A46000B0AED64304C700A30B003020B0AFE024A
:100A56000B0AED64324C700A30B203020B0AFE0236
:100A66000B0AED64334C700A30B303020B0AFE0224
:100A76000B0AED64344C700A30B403020B0AFE0212
:100A86000B0AED64354C700620B579FE8076ED6470
:100A9600364C700620B66DFE806AED64374C7006E3
:100AA60020B761FE805EED64404C700620C055FEA6
:100AB6008052ED64414C700620C149FE8046ED64CB
:100AC600424C700620C23DFE803AED64434C7006EF
:100AD60020C331FE802EED64444C700620C425FEF2
:100AE6008022ED64454C700620C519FE8016ED6423
:100AF600464C700620C60DFE800AED64474C700415
:060B060020C701FEAF064E
:010B0C0022C6
:10065A00EFFB7A007009ED7003C28022D28022EB90
:10066A0064014A7009ED7003C28122D28122EFFB34
:10067A007A0064027009ED7003C28222D28222EBF0
:10068A0064034A7009ED7003C28322D28322EFFB0E
:10069A007A0064047009ED7003C28422D28422EBCA
:1006AA0064054A7009ED7003C28522D28522EFFBE8
:1006BA007A0064067009ED7003C28622D28622EBA4
:1006CA0064074A7009ED7003C28722D28722EFFBC2
:1006DA007A0064107009ED7003C29022D29022EB66
:1006EA0064114A7009ED7003C29122D29122EFFB84
:1006FA007A0064127009ED7003C29222D29222EB40
:10070A0064134A7009ED7003C29322D29322EFFB5D
:10071A007A0064147009ED7003C29422D29422EB19
:10072A0064154A7009ED7003C29522D29522EFFB37
:10073A007A0064167009ED7003C29622D29622EBF3
:10074A0064174A7009ED7003C29722D29722EFFB11
:10075A007A0064207009ED7003C2A022D2A022EBB5
:10076A0064214A7009ED7003C2A122D2A122EFFBD3
:10077A007A0064227009ED7003C2A222D2A222EB8F
:10078A0064234A7009ED7003C2A322D2A322EFFBAD
:10079A007A0064247009ED7003C2A422D2A422EB69
:1007AA0064254A7009ED7003C2A522D2A522EFFB87
:1007BA007A0064267009ED7003C2A622D2A622EB43
:1007CA0064274A7009ED7003C2A722D2A722EFFB61
:1007DA007A0064307009ED7003C2B022D2B022EB05
:1007EA0064324A7009ED7003C2B222D2B222EFFB20
:1007FA007A0064337009ED7003C2B322D2B322EBDC
:10080A0064344A7009ED7003C2B422D2B422EFFBF9
:10081A007A0064357009ED7003C2B522D2B522EBB5
:10082A0064364A7009ED7003C2B622D2B622EFFBD3
:10083A007A0064377009ED7003C2B722D2B722EB8F
:10084A0064404A7009ED7003C2C022D2C022EFFB95
:10085A007A0064417009ED7003C2C122D2C122EB51
:10086A0064424A7009ED7003C2C222D2C222EFFB6F
:10087A007A0064437009ED7003C2C322D2C322EB2B
:10088A0064444A7009ED7003C2C422D2C422EFFB49
:10089A007A0064457009ED7003C2C522D2C522EB05
:1008AA0064464A7009ED7003C2C622D2C622EF64BA
:0C08BA00477008ED7003C2C722D2C722AD
:10001E000000001400FFFFFF00FFFFFF00FFFFFFC7
:10002E0000FFFFFF00FFFFFF00FFFFFF00FFFFFFCE
:10003E0000FFFFFF00FFFFFF00FFFFFF00FFFFFFBE
:10004E0000FFFFFF00FFFFFF00FFFFFF00FFFFFFAE
:10005E0000FFFFFF00FFFFFF00FFFFFF00FFFFFF9E
:10006E0000FFFFFF0000001400333333003333333F
:10007E00003333330033333300333333003333330E
:10008E0000333333003333330033333300333333FE
:10009E0000333333003333330033333300333333EE
:1000AE0000333333003333330033333300333333DE
:1000BE0000333333003333330000001400FFFF00EE
:1000CE0000FFFF0000FFFF0000FFFF0000FFFF002A
:1000DE0000FFFF0000FFFF0000FFFF0000FFFF001A
:1000EE0000FFFF0000FFFF0000FFFF0000FFFF000A
:1000FE0000FFFF0000FFFF0000FFFF0000FFFF00FA
:10010E0000FFFF0000FFFF0000FFFF0000000014D3
:10011E0000000000000000000000000000000000D1
:10012E0000000000000000000000000000000000C1
:10013E0000000000000000000000000000000000B1
:10014E0000000000000000000000000000000000A1
:10015E000000000000000000000000000000000091
:10016E00000000140000000000000000000000006D
:10017E00000000000000000000000000000101016E
:10018E0000050505001111110022222200444444ED
:10019E000088888800FFFFFF0000000000000000BC
:1001AE000000000000000000000000000000000041
:1001BE0000000000000000140088888800888888ED
:1001CE000088888800000000000000000000000089
:1001DE000000000000000000000000000000000011
:1001EE000000000000000000000000000000000001
:1001FE0000000000000000000000000000000000F1
:10020E0000000000000000000000000C000000FFD5
:10021E00000000FF000000FF000000FF000000FFD4
:10022E00000000FF000000FF000000FF000000FFC4
:10023E00000000FF000000FF000000FF0000000CA7
:10024E000000FF000000FF000000FF000000FF00A4
:10025E000000FF000000FF000000FF000000FF0094
:10026E000000FF000000FF000000FF000000FF0084
:10027E000000000C00FF000000FF000000FF000067
:10028E0000FF000000FF000000FF000000FF000064
:10029E0000FF000000FF000000FF000000FF000054
:1002AE0000FF00000000000600FF000000FF6100DC
:1002BE0000FFFF000000FF00004169E100FF00FFAA
:1002CE0000000018000000FF000000FF000000FF0B
:1002DE00000000FF00FFFF0000FFFF0000FFFF0017
:1002EE0000FFFF0000FF002000FF002000FF0020A5
:1002FE0000FF0020000000FF000000FF000000FFD4
:10030E00000000FF00FFFF0000FFFF0000FFFF00E6
:10031E0000FFFF0000FF002000FF002000FF002074
:10032E0000FF0020000000180000FFFF0000FFFF8C
:10033E000000FFFF0000FFFF00FF000000FF0000B5
:10034E0000FF000000FF00000020FF000020FF0063
:10035E000020FF000020FF000000FFFF0000FFFF55
:10036E000000FFFF0000FFFF00FF000000FF000085
:10037E0000FF000000FF00000020FF000020FF0033
:10038E000020FF000020FF000000002400FF00FFFF
:10039E0000FF00FF00FF00FF00FF00FF00FFFF0057
:1003AE0000FFFF0000FFFF0000FFFF000000FFFF47
:1003BE000000FFFF0000FFFF0000FFFF00FF00FF37
:1003CE0000FF00FF00FF00FF00FF00FF00FFFF0027
:1003DE0000FFFF0000FFFF0000FFFF000000FFFF17
:1003EE000000FFFF0000FFFF0000FFFF00FF00FF07
:1003FE0000FF00FF00FF00FF00FF00FF00FFFF00F7
:10040E0000FFFF0000FFFF0000FFFF000000FFFFE6
:10041E000000FFFF0000FFFF0000FFFF00000014C0
:10042E0000FFFFFF00FFFFFF00FFFFFF00FFFFFFCA
:10043E0000FFFFFF00FFFFFF00FFFFFF00FFFFFFBA
:10044E0000FFFFFF00FFFFFF00FFFFFF00FFFFFFAA
:10045E0000FFFFFF00FFFFFF00FFFFFF00FFFFFF9A
:10046E0000FFFFFF00FFFFFF00FFFFFF00FFFFFF8A
:10047E000000002700FF00FF00FF00FF00FF00FF4D
:10048E0000FF00FF00FF00FF00FF00FF00FF00FF66
:10049E0000FF00FF00FF00FF00FF00FF00FF40B065
:1004AE0000FF808000FFB04000FFFF0000FFFF0054
:1004BE0000FFFF0000FFFF0000FFFF0000FFFF0036
:1004CE0000FFFF0000FFFF0000FFFF0000FFFF0026
:1004DE0000A0FF400080FF800040FFB00000FFFF43
:1004EE000000FFFF0000FFFF0000FFFF0000FFFF06
:1004FE000000FFFF0000FFFF0000FFFF0000FFFFF6
:10050E000000FFFF0040A0FF008080FF00B040FF12
:10051E000000000C00FF000000FF300000FF610033
:10052E0000FFA00000FFFF000080FF000000FF00A2
:10053E000020A060004169E10080308000FF00FFD4
:10054E0000FF00800000000A00FF000000BB00005A
:10055E00009900000077000000330000000000004A
:10056E0000330000007700000099000000BB00007F
:10057E000000000A00FF610000BB5000009940001F
:10058E000077200000331000000000000033100040
:10059E00007720000099400000BB50000000000AC8
:1005AE0000FFFF0000BBBB000099990000777700A9
:1005BE000033330000000000003333000077770073
:1005CE000099990000BBBB000000000A0000FF006C
:1005DE000000BB000000990000007700000033000F
:1005EE0000000000000033000000770000009900BA
:1005FE000000BB000000000A004169E1003060C04D
:10060E00002040900010205000081025000000002F
:10061E00000810250010205000204090003060C0CF
:10062E000000000A00FF00FF00BB00BB009900990C
:10063E0000770077003300330000000000330033F2
:0C064E00007700770099009900BB00BB0A
:1016260042000000004100020041000300410004A6
:101636000041000500410006004100070041000886
:10164600004100090041000A0041000B0041000C66
:101656000041000D0041000E0041000F0041001046
:101666000041001100410012004100130041001426
:101676000041001500410016004100170041001806
:10168600004100190041001A0041001B0041001CE6
:101696000041001D0041001E0041001F00410020C6
:0116A6000043
:1011F700F0900085E0FBA3E0FAA3E0F922780890DD
:1012070000E5E0FCA3E0FDA3E0FEA3E0FF120E0370
:10121700E4AE07FD22E075F004A4F58285F08302B1
:101227000E36EFF0A3EDF0A3EBF0A3EAF0A3E9F09D
:10123700E422EDC3940874809480229000EAE0FCD5
:10124700A3E0FDA3E0FEA3E0FF22E025E025E024E4
:101257001AF582E43401F583120E6690003C120EF3
:10126700967F0222E004F0E0C3940A7480948022FF
:10127700EFC3940374809480229000E5E0FCA3A35D
:10128700A3E0FFE4AE07FD22E004F094027480942B
:101297008022E0FFE4FCFDFED3020DF2EE04FFA383
:1012A700F090011AFB120E66EBD39F22EFC39496C0
:1012B70074809480222401FFE433FEE0FDC3EF9D98
:1012C7007480F86E98229000E5120E967F022290A5
:1012D70000EA120E967F0222E0FFA3E0FEC3EF9E14
:1012E70022A3F0A3F0C2AF22E0FF900039E0FEC3D3
:1012F7009F22E0FF900039E0FEC39F22E0FF9000AD
:06130700B4E0FEC39F22CA
:1021B700E4FFD2B6EFC39401748094805004000FFB
:0F21C70080F2C2B6E4FF1212775004000F80F7C7
:0121D60022E6
:1021D700E4FFD2B61212775004000F80F7C2B6E4BC
:0A21E700FF1212775004000F80F77A
:0121F10022CB
:0E229B00E4FFC2B61212B3500500000F80F629
:0122A9002212
:10226800E4FFD2B700C2B71212775004000F80F70C
:012278002243
:1021F200E4FFD2B71212775004000F80F7C2B7E49F
:0A220200FF1212775004000F80F75E
:01220C0022AF
:0E22AA00E4FFC2B71212B3500500000F80F619
:0122B8002203
:10227900E4FFD29000C2901212775004000F80F749
:012289002232
:10220D00E4FFD2901212775004000F80F7C290E4D1
:0A221D00FF1212775004000F80F743
:012227002294
:0E22B900E4FFC2901212B3500500000F80F631
:0122C70022F4
:10228A00E4FFD29100C2911212775004000F80F736
:01229A002221
:10222800E4FFD2911212775004000F80F7C291E4B4
:0A223800FF1212775004000F80F728
:012242002279
:0E22C800E4FFC2911212B3500500000F80F621
:0122D60022E5
:061FB9009000EE120E96EE
:101FBF009000EE12124578081212141212395013B3
:101FCF00EE30E7051221D780031221B7EE25E0FE90
:101FDF000D80E89000EE12124578101212141212B2
:101FEF00395013EE30E7051221D780031221B7EED7
:101FFF0025E0FE0D80E89000EE1212831212395088
:10200F0013EE30E7051221D780031221B7EE25E03A
:04201F00FE0D80E84A
:01202300229A
:02156D00AB07CA
:10156F00EB640170531212801212395013EE30E7F0
:10157F00051221F28003122268EE25E0FE0D80E8AD
:10158F001212041212395013EE30E7051221F280B5
:10159F0003122268EE25E0FE0D80E8781012120685
:1015AF001212395071EE30E7051221F28003122228
:1015BF0068EE25E0FE0D80E8EB6402705912128090
:1015CF001212395013EE30E7051221F28003122266
:1015DF0068EE25E0FE0D80E89000E51212457810C8
:1015EF001212141212395013EE30E7051221F28045
:1015FF0003122268EE25E0FE0D80E812120412128B
:10160F00395013EE30E7051221F28003122268EEF3
:06161F0025E0FE0D80E84D
:0116250022A2
:0213E200AB0757
:1013E400EB6401705E9000EA1212831212395013FA
:1013F400EE30E70512220D8003122279EE25E0FE7D
:101404000D80E81212427808121214121239501385
:10141400EE30E70512220D8003122279EE25E0FE5C
:101424000D80E812124278101212141212395076FA
:10143400EE30E70512220D8003122279EE25E0FE3C
:101444000D80E8EB6402705E9000EA1212831212BF
:10145400395013EE30E70512220D8003122279EE83
:1014640025E0FE0D80E812124278101212141212B6
:10147400395013EE30E70512220D8003122279EE63
:1014840025E0FE0D80E8121242780812121412129E
:10149400395013EE30E70512220D8003122279EE43
:0614A40025E0FE0D80E8CA
:0114AA00221F
:02130D00AB072C
:10130F00EB6401706490003C121283121239501377
:10131F00EE30E705122228800312228AEE25E0FE26
:10132F000D80E890003C1212457808121214121228
:10133F00395013EE30E705122228800312228AEE6D
:10134F0025E0FE0D80E890003C1212457810121235
:10135F0014121239507CEE30E70512222880031246
:10136F00228AEE25E0FE0D80E8EB640270649000A7
:10137F003C1212831212395013EE30E70512222855
:10138F00800312228AEE25E0FE0D80E890003C12C9
:10139F00124578101212141212395013EE30E7055D
:1013AF00122228800312228AEE25E0FE0D80E8909B
:1013BF00003C12124578081212141212395013EE13
:1013CF0030E705122228800312228AEE25E0FE0D57
:0213DF0080E8A4
:0113E10022E9
:0314AB009000406E
:1014AE00121229900048F0A3F0A3F0A3F0120E162A
:1014BE0090004CEEF0A3EFF0C2AFE4900048F0A322
:1014CE00F0900040E0FFC3900049E09F900048E09C
:1014DE0094005065900000E0FEA3E0FF900049E00C
:1014EE002FFF900048E03EFE90004AF0A3EFF0A3DD
:1014FE00E0FCA3E0FD120D8790004AECF0A3EDF0A6
:10150E0090004AE0FEA3E07802C333CE33CED8F982
:10151E00FF900042E0FBA3E0FAA3E02FF9EA3EFAC7
:10152E00900004120E36121FB9900049E004F070BC
:10153E0090900048E004F0808812229BD2AF900079
:10154E0000E475F001120DDCFED390004DE095F035
:0E155E0090004CE09E5007E4900000F0A3F0D7
:01156C00225C
:08196C0090005CEFF090005EBA
:1019740012122F900064F0A3F09000611211FB1278
:101984000D2F64017009120D75ED14900002F0C260
:10199400AFE4900064F090005CE0FF900064E0FE2F
:1019A400C39F503CEE04FF900002E02F900065F0CE
:1019B40090005E1211FB120E16900065E0D39F405A
:1019C40008E0FE8FF084E5F0F090005E1211FB90C9
:1019D400006512121C121FB9900064E004F080B676
:1019E40012229BD2AF900002E0701090005E1211A0
:1019F400FB120E16EF14900002F022900002E01485
:011A0400F0F1
:011A050022BE
:0818CF00900066EFF090006844
:1018D70012122F90006EF0A3F090006B1211FB1202
:1018E7000D2F64017009120D75ED14900003F0C2FD
:1018F700AFE490006EF0900066E0FF90006EE0FEAF
:10190700C39F503FEE04FF900003E02F90006FF05D
:101917009000681211FB120E1690006FE0D39F40E3
:1019270008E0FE8FF084E5F0F09000681211FB905C
:10193700006F12121C1212CD12156D90006EE0048A
:10194700F080B31222AAD2AF900003E0701090008B
:10195700681211FB120E16EF14900003F02290008C
:0419670003E014F095
:01196B002259
:081A0600900070EFF0900072F7
:101A0E0012122F900078F0A3F09000751211FB12B5
:101A1E000D2F64017009120D75ED14900004F0C2C3
:101A2E00AFE4900078F0900070E0FF900078E0FE58
:101A3E00C39F503CEE04FF900004E02F900079F01D
:101A4E009000721211FB120E16900079E0D39F4097
:101A5E0005E0FEEE9FF09000721211FB90007912DD
:101A6E00121C1212D61213E2900078E004F080B627
:101A7E001222B9D2AF900004E070109000721211D1
:101A8E00FB120E16EF14900004F022900004E014E6
:011A9E00F057
:011A9F002224
:081AA00090007AEFF090007C49
:101AA80012122F900082F0A3F090007F1211FB1207
:101AB8000D2F64017009120D75ED14900005F0C228
:101AC800AFE4900082F090007AE0FF900082E0FEA0
:101AD800C39F503CEE04FF900005E02F900083F078
:101AE80090007C1211FB120E16900083E0D39F40E9
:101AF80005E0FEEE9FF090007C1211FB900083122F
:101B0800121C12126212130D900082E004F080B6CB
:101B18001222C8D2AF900005E0701090007C12111C
:101B2800FB120E16EF14900005F022900005E01449
:011B3800F0BC
:011B39002289
:041EB300900084EF28
:101EB70012122D90008BF0A3F0A3F090008812115E
:101EC700FB120D2F64017008120D7590000604F0C7
:101ED700C2AF900006E00490008D1211F7120E16A3
:101EE70090008DE0D39F4005E0FEEE9FF0E4900068
:101EF7008BF0900084E0FF90008BE0C39F5014129A
:101F070011F890008D12121C121FB990008BE0047B
:101F1700F080DF12229BD2AF900006E0041211F787
:101F2700120E769000061212995005E4900006F002
:011F37002287
:041C6E0090008EEF65
:101C720012122D900095F0A3F0A3F0900092121191
:101C8200FB120D2F64017008120D7590000704F00D
:101C9200C2AF900007E004900097F090008F1211FD
:101CA200FB120E16900097E0D39F4005E0FEEE9FD8
:101CB200F0E4900095F090008EE0FF900095E0C374
:101CC2009F501A90008F1211FB90009712121C1253
:101CD20012CD12156D900095E004F080D91222AA5F
:101CE200D2AF900007E004F090008F1211FB120EA9
:0E1CF200769000071212995005E4900007F05A
:011D000022C0
:041D0100900098EFC7
:101D050012122D90009FF0A3F0A3F090009C1211E9
:101D1500FB120D2F64017008120D7590000804F078
:101D2500C2AF900008E0049000A1F0900099121154
:101D3500FB120E169000A1E0D39F4005E0FEEE9F3A
:101D4500F0E490009FF0900098E0FF90009FE0C3C2
:101D55009F501A9000991211FB9000A112121C12AB
:101D650012D61213E290009FE004F080D91222B936
:101D7500D2AF900008E004F09000991211FB120E0A
:0E1D8500769000081212995005E4900008F0C4
:011D9300222D
:041D94009000A2EF2A
:101D980012122D9000A9F0A3F0A3F09000A6121142
:101DA800FB120D2F64017008120D7590000904F0E4
:101DB800C2AF900009E0049000ABF09000A31211AC
:101DC800FB120E169000ABE0D39F4005E0FEEE9F9D
:101DD800F0E49000A9F09000A2E0FF9000A9E0C311
:101DE8009F501A9000A31211FB9000AB12121C1204
:101DF800126212130D9000A9E004F080D91222C8D3
:101E0800D2AF900009E004F09000A31211FB120E6B
:0E1E1800769000091212995005E4900009F02E
:011E26002299
:032153009000C831
:102156001212291212E89000CDF09000C8E0FF900C
:1021660000CDE0FEC39F50229000C9E0FFEE2F9005
:1021760000CEF09000CA1211FB9000CE12121C1273
:0F2186001FB99000CDE004F080D012229BD2AFA1
:012195002227
:032081009000CFFD
:102084001212291212E89000D4F09000CFE0FF90D1
:1020940000D4E0FEC39F50259000D0E0FFEE2F90C7
:1020A40000D5F09000D11211FB9000D512121C1231
:1020B40012CD12156D9000D4E004F080CD1222AA46
:0220C400D2AF99
:0120C60022F7
:0320C7009000D6B0
:1020CA001212291212E89000DBF09000D6E0FF907D
:1020DA0000DBE0FEC39F50259000D7E0FFEE2F9073
:1020EA0000DCF09000D81211FB9000DC12121C12D6
:1020FA0012D61213E29000DBE004F080CD1222B96E
:02210A00D2AF52
:01210C0022B0
:03210D009000DD62
:102110001212291212E89000E2F09000DDE0FF9028
:1021200000E2E0FEC39F50259000DEE0FFEE2F901E
:1021300000E3F09000DF1211FB9000E312121C127A
:10214000126212130D9000E2E004F080CD1222C85A
:02215000D2AF0C
:01215200226A
:0B0B0D009000F2EBF0A3EAF0A3E9F087
:100B1800C2AF900056E0603F900010E00490000AD9
:100B2800F0D31212704004E024F6F090000AE02599
:100B3800E025E02452F582E43405120D06900010F9
:100B480012126B401DE4F090001612128F4013E44D
:100B5800F0900056F0800BE4900010F090055612CB
:100B68000D21900057E0603F900011E00490000BC9
:100B7800F0D31212704004E024F6F090000BE02548
:100B8800E025E0242EF582E43406120D06900011CB
:100B980012126B401DE4F090001712128F4013E4FC
:100BA800F0900057F0800BE4900011F0900632129C
:100BB8000D21900058E0603F900012E00490000C76
:100BC800F0D31212704004E024F6F090000CE025F7
:100BD800E025E02402F582E43406120D0F9000129D
:100BE80012126B401DE4F090001812128F4013E4AB
:100BF800F0900058F0800BE4900012F09006061276
:100C08000D28900059E0603F900013E00490000D1B
:100C1800F0D31212704004E024F6F090000DE025A5
:100C2800E025E024D6F582E43405120D0F90001378
:100C380012126B401DE4F090001912128F4013E459
:100C4800F0900059F0800BE4900013F09005DA1250
:100C58000D2890005AE0603F900014E00490000EC8
:100C6800F0D31212704004E024F6F090000EE02554
:100C7800E025E024AAF582E43405120D189000144A
:100C880012126B4020E4F090001A12128F4016E402
:100C9800F090005AF0800EE4900014F09005AE1227
:100CA8000E66121FB990005BE0603F900015E004EB
:100CB80090000FF0D31212704004E024F6F0900078
:100CC8000FE025E025E0247EF582E43405120D18B6
:100CD80090001512126B4020E4F090001B12128F46
:100CE8004016E4F090005BF0800EE4900015F09060
:0D0CF8000582120E66121FB912229BD2AFA8
:100D050022F583120E66121FB922F583120E6612A2
:100D15001FB922F583120E66121FB922120E661232
:0A0D25001FB922120E66121FB92238
:04178B009000B6EF25
:10178F0012122D9000BDF0A3F09000BA1211FB12AF
:10179F000D2F64017007120D7590001CF0C2AFE49D
:1017AF009000BDF09000B6E0FF9000BDE0FEC39F3B
:1017BF005051EE04A3F09000B71211FB120E1690C9
:1017CF0000BEE0D39F4005E0FEEE9FF09000BDE02D
:1017DF0090001C1212BC50149000B71211FB900015
:1017EF00BE12121C90003C120E96800A90003C1202
:1017FF000EA2000000007F0212130D9000BDE00446
:10180F00F080A11222C8D2AF9000B6E0FF90001C6A
:0D181F00E0B50703E4F02290001CE004F0A7
:01182C002299
:04182D009000BFEF79
:1018310012122D9000C6F0A3F09000C31211FB12FA
:101841000D2F64017007120D7590001DF0C2AFE4F9
:101851009000C6F09000BFE0FF9000C6E0FEC39F7D
:101861005051EE04A3F09000C01211FB120E16901D
:1018710000C7E0D39F4005E0FEEE9FF09000C6E078
:1018810090001D1212BC500C90003C120EA20000E0
:10189100000080129000C01211FB9000C712121CB0
:1018A10090003C120E967F0212130D9000C6E004C8
:1018B100F080A11222C8D2AF9000BFE0FF90001DBE
:0D18C100E0B50703E4F02290001DE004F004
:0118CE0022F7
:031B3A00900031E7
:101B3D00121229900039F0A3F09000361211FB1209
:101B4D000D2F64017007120D7590001EF0C2AF903D
:101B5D0000311212DF900031F0E4900039F0900066
:101B6D00311212EF502EEE04A3F09000331211FB40
:101B7D00120E1690003AE0D39F4005E0FEEE9FF066
:101B8D009000331211FB90003A12121C12126212C5
:101B9D001BCA80CAE4900039F09000321212EF5047
:101BAD00161212A3400690003AE09FF090003A12F0
:0C1BBD001251121BCA80E21222C8D2AFE3
:0B1BC9002212130D900039E004F022FE
:0316DD0090003149
:1016E000121229900039F0A3F09000361211FB126B
:1016F0000D2F64017007120D7590001FF0C2AF909E
:1017000000311212DF900031F0E4900039F09000C7
:10171000311212F9502EEE04A3F09000331211FB97
:10172000120E1690003AE0D39F4005E0FEEE9FF0C7
:101730009000331211FB90003A12121C1212621226
:10174000178180CAE4900039F09000321212F950EB
:101750002AEE04FFA3F09000721212AB4006900034
:101760003AE09FF090003AE025E025E02472F5820F
:10177000E4340012125D12178180CE1222C8D2AF5B
:0B1780002212130D900039E004F0224B
:031BD4009000ACD2
:101BD7001212299000B4F0A3F09000B11211FB1279
:101BE7000D2F64017007120D75900020F0C2AF90A1
:101BF70000AC1212DF9000ACF0E49000B4F090005B
:101C0700AC121303502EEE04A3F09000AE1211FB9A
:101C1700120E169000B5E0D39F4005E0FEEE9FF050
:101C27009000AE1211FB9000B512121C1212621234
:101C37001C6480CAE49000B4F09000AD1213035006
:101C4700161212A340069000B5E09FF09000B5125F
:0C1C57001251121C6480E21222C8D2AFAD
:0B1C63002212130D9000B4E004F022E8
:1016A70041005200410053004100540041005500E1
:1016B70041005600410057004100580041005900C1
:1016C70041005A0041005B0041004E0041004F00BD
:0516D70042005000007C
:10219600900036F9C9F0A3F0A3E9F07BFF22A3F083
:1021A600A3F0A3F0A3F0A3F0A322900055740AF0C5
:0121B6002206
:1010C600E4FF900021F0A3F0A304F0A3F0E41221C2
:1010D600A4F01221A47414F0122024122243D2AFD9
:1010E600D2A912229B12229B1222C8E4FFC2979019
:1010F6000055E07010EF700D1221967D031211E37A
:101106007F011221B0900055E07012EF6401700D5E
:101116001221967D021211E37F021221B090005532
:10112600E07018EF640270131221967A0079727DCE
:10113600017F03121B3A7F061221B0900055E07022
:1011460018EF640670131221967A007972E4FD7F17
:1011560003121B3A7F031221B0900055E07015EF81
:10116600640370109000361221997D031211ED7FF1
:10117600041221B0900055E07016EF64047011F966
:1011860090003612219A7D021211ED7F051221B0D0
:10119600900055E0701CEF64057017F99000361248
:1011A600219A7A01791A7D017F031216DD7F0712D3
:1011B60021B0900055E060030210F5EF640760036C
:1011C6000210F5F990003612219A7A01791AE4FD97
:0D11D6007F031216DDE4FF1221B00210F5B8
:1011E3007A0079727F03121B3A227A01791A7F03FC
:0411F3001216DD22D1
:03000B00021F3899
:101F3800C0E0C083C082C0D0900052E0600214F0BC
:101F4800900053E0600214F0900054E0600214F036
:101F5800900055E0600214F0900050E07002A3E099
:101F6800600E900051E024FFF0900050E034FFF044
:101F7800900056E0600214F0900057E0600214F000
:101F8800900058E0600214F0900059E0600214F0EC
:101F980090005AE0600214F090005BE0600214F0D8
:101FA80090004EE0600214F0D0D0D082D083D0E010
:011FB80032F6
:03001B00020003DD
:0100030032CA
:10225600900001020D4874FF900032F0E4900031C6
:02226600F02264
:100F2D00EFD394057480948040037F0122120D2F1E
:100F3D00FED394037480948040037F0222EF7038B7
:100F4D00EE7008122256F452935294120D2F640132
:100F5D0070081222564293F45294120D2FFE640221
:100F6D00700712225642934294EE6403700A1222C5
:100F7D0056FEF45293EE4294EF6401703A120D2F27
:100F8D00FE7008122256F452915292EE64017008CE
:100F9D001222564291F45292120D2F6402700712D2
:100FAD00225642914292120D2F6403700A1222565C
:100FBD00FEF45291EE4292EF6402703A120D2FFE42
:100FCD007008122256F452955296EE640170081272
:100FDD0022564295F45296120D2F6402700712227A
:100FED005642954296120D2F6403700A122256FE38
:100FFD00F45295EE4296EF6403703A120D2FFE7087
:10100D0008122256F452B152B2EE64017008122247
:10101D005642B1F452B2120D2F64027007122256CD
:10102D0042B142B2120D2F6403700A122256FEF421
:10103D0052B1EE42B2EF6404703A120D2FFE7008F9
:10104D00122256F452B352B4EE64017008122256B5
:10105D0042B3F452B4120D2F64027007122256429D
:10106D00B342B4120D2F6403700A122256FEF452CD
:10107D00B3EE42B4EF6405703D120D2FFF7E00708C
:10108D0008122256F452C952CAEF64014E7008126A
:10109D00225642C9F452CA120D2F64027007122251
:1010AD005642C942CA120D2F6403700A122256FF0E
:0910BD00F452C9EF42CA7F00227F
:1020240012225C7B017A0079317F01120F2DD2904C
:10203400D291D292D293D294D295D296D29712229E
:102044005C7F02120F2DD2A0D2A1D2A2D2A3D2A41D
:10205400D2A5D2A6D2A712225C7F03120F2DD2B032
:10206400D2B1D2B2D2B3D2B4D2B5D2B6D2B774301E
:0C20740012225E7F05120F2DD2CCD2CDBF
:01208000223D
:10224300538E7F5389F0758AE5758CBEC28DD28C0F
:03225300D2B922DB
:03000000021E27B6
:0C1E2700787FE4F6D8FD758107021E6E7E
:100D2F00BB010689828A83E0225002E722BBFE02C2
:090D3F00E32289828A83E49322F5
:100D4800BB010CE58229F582E5833AF583E0225060
:100D580006E92582F8E622BBFE06E92582F8E222AA
:0D0D6800E58229F582E5833AF583E49322C4
:100D7500BB010689828A83F0225002F722BBFE015D
:020D8500F32257
:100D8700BC000BBE0029EF8DF084FFADF022E4CC50
:100D9700F875F008EF2FFFEE33FEEC33FCEE9DEC19
:100DA700984005FCEE9DFE0FD5F0E9E4CEFD22ED5F
:100DB700F8F5F0EE8420D21CFEADF075F008EF2FA9
:100DC700FFED33FD4007985006D5F0F222C398FD9A
:050DD7000FD5F0EA2237
:100DDC00C5F0F8A3E028F0C5F0F8E58215827002A2
:060DEC001583E038F0223F
:100DF200EB9FF5F0EA9E42F0E99D42F0E89C45F057
:010E020022CD
:100E0300E8600FECC313FCED13FDEE13FEEF13FFCD
:030E1300D8F122F1
:100E1600BB010789828A83020EDF5005E9F8020EBC
:100E2600D3BBFE05E9F8020EEB89828A83020E66C1
:100E3600BB010DE58229F582E5833AF583020EDFD3
:100E46005007E92582F8020ED3BBFE07E92582F892
:100E5600020EEBE58229F582E5833AF583020E66FA
:100E6600E493FC740193FD740293FE740393FF22D2
:100E7600BB010789828A83020F045005E9F8020E36
:100E8600F7BBFE05E9F8020F1089828A83020F1D5F
:0C0E9600ECF0A3EDF0A3EEF0A3EFF022CF
:100EA200A8828583F0D083D082120EB9120EB912B5
:100EB2000EB9120EB9E473E493A3C583C5F0C583DA
:100EC200C8C582C8F0A3C583C5F0C583C8C582C89A
:010ED20022FD
:101E33000210C6E493A3F8E493A34003F68001F2EF
:101E430008DFF48029E493A3F85407240CC8C333B0
:101E5300C4540F4420C8834004F456800146F6DF7F
:101E6300E4800B0102040810204080901626E47ED3
:101E7300019360BCA3FF543F30E509541FFEE49374
:101E8300A360010ECF54C025E060A840B8E493A33B
:101E9300FAE493A3F8E493A3C8C582C8CAC583CA66
:101EA300F0A3C8C582C8CAC583CADFE9DEE780BE1E
:0116DC00000D
:0C0ED300E6FC08E6FD08E6FE08E6FF224B
:0C0EDF00E0FCA3E0FDA3E0FEA3E0FF2286
:0C0EEB00E2FC08E2FD08E2FE08E2FF2243
:0D0EF700E6FB08E6F908E6FA08E6CBF8226B
:0C0F0400E0F8A3E0F9A3E0FAA3E0FB2270
:0D0F1000E2FB08E2F908E2FA08E2CBF82261
:100F1D00E493F8740193F9740293FA740393FB222A
:00000001FF
