:10089D007E01EF700A308003020A8A1E020A8ABFA7
:1008AD00010B308103020A8AE4FE020A8ABF020BA1
:1008BD00308203020A8AE4FE020A8ABF030B3083E8
:1008CD0003020A8AE4FE020A8ABF040B3084030283
:1008DD000A8AE4FE020A8ABF050B308503020A8AE2
:1008ED00E4FE020A8ABF060B308603020A8AE4FE82
:1008FD00020A8ABF070B308703020A8AE4FE020A46
:10090D008ABF100B309003020A8AE4FE020A8ABFE6
:10091D00110B309103020A8AE4FE020A8ABF120B00
:10092D00309203020A8AE4FE020A8ABF130B309347
:10093D0003020A8AE4FE020A8ABF140B30940302F2
:10094D000A8AE4FE020A8ABF150B309503020A8A51
:10095D00E4FE020A8ABF160B309603020A8AE4FEF1
:10096D00020A8ABF170B309703020A8AE4FE020AB5
:10097D008ABF200B30A003020A8AE4FE020A8ABF56
:10098D00210B30A103020A8AE4FE020A8ABF220B60
:10099D0030A203020A8AE4FE020A8ABF230B30A3A7
:1009AD0003020A8AE4FE020A8ABF240B30A4030262
:1009BD000A8AE4FE020A8ABF250B30A503020A8AC1
:1009CD00E4FE020A8ABF260B30A603020A8AE4FE61
:1009DD00020A8ABF270B30A703020A8AE4FE020A25
:1009ED008ABF300B30B003020A8AE4FE020A8ABFC6
:1009FD00320B30B203020A8AE4FE020A8ABF3307C1
:100A0D0020B37AE4FE8076BF340720B470E4FE8014
:100A1D006CBF350720B566E4FE8062BF360720B691
:100A2D005CE4FE8058BF370720B752E4FE804EBF0E
:100A3D00400720C048E4FE8044BF410720C13EE48A
:100A4D00FE803ABF420720C234E4FE8030BF430728
:100A5D0020C32AE4FE8026BF440720C420E4FE8084
:100A6D001CBF450720C516E4FE8012BF460720C6F1
:0F0A7D000CE4FE8008BF470520C702E4FEAF0669
:010A8C002247
:100A8D00EF7009ED7003C28022D28022BF0109ED03
:100A9D007003C28122D28122BF0209ED7003C2828E
:100AAD0022D28222BF0309ED7003C28322D2832298
:100ABD00BF0409ED7003C28422D28422BF0509ED63
:100ACD007003C28522D28522BF0609ED7003C2864E
:100ADD0022D28622BF0709ED7003C28722D2872258
:100AED00BF1009ED7003C29022D29022BF1109ED03
:100AFD007003C29122D29122BF1209ED7003C292EE
:100B0D0022D29222BF1309ED7003C29322D29322F7
:100B1D00BF1409ED7003C29422D29422BF1509EDC2
:100B2D007003C29522D29522BF1609ED7003C296AD
:100B3D0022D29622BF1709ED7003C29722D29722B7
:100B4D00BF2009ED7003C2A022D2A022BF2109ED62
:100B5D007003C2A122D2A122BF2209ED7003C2A24D
:100B6D0022D2A222BF2309ED7003C2A322D2A32257
:100B7D00BF2409ED7003C2A422D2A422BF2509ED22
:100B8D007003C2A522D2A522BF2609ED7003C2A60D
:100B9D0022D2A622BF2709ED7003C2A722D2A72217
:100BAD00BF3009ED7003C2B022D2B022BF3209EDC1
:100BBD007003C2B222D2B222BF3309ED7003C2B3A9
:100BCD0022D2B322BF3409ED7003C2B422D2B422B3
:100BDD00BF3509ED7003C2B522D2B522BF3609ED7E
:100BED007003C2B622D2B622BF3709ED7003C2B769
:100BFD0022D2B722BF4009ED7003C2C022D2C0225B
:100C0D00BF4109ED7003C2C122D2C122BF4209ED1D
:100C1D007003C2C222D2C222BF4309ED7003C2C308
:100C2D0022D2C322BF4409ED7003C2C422D2C42212
:100C3D00BF4509ED7003C2C522D2C522BF4609EDDD
:100C4D007003C2C622D2C622BF4708ED7003C2C7C9
:040C5D0022D2C722B6
:10001E000000000C000000FF000000FF000000FFC9
:10002E00000000FF000000FF000000FF000000FFC6
:10003E00000000FF000000FF000000FF000000FFB6
:10004E00000000FF0000000C0000FF000000FF0099
:10005E000000FF000000FF000000FF000000FF0096
:10006E000000FF000000FF000000FF000000FF0086
:10007E000000FF000000FF000000000C00FF000069
:10008E0000FF000000FF000000FF000000FF000066
:10009E0000FF000000FF000000FF000000FF000056
:1000AE0000FF000000FF000000FF0000000000063F
:1000BE0000FF000000FF610000FFFF000000FF00D6
:1000CE00004169E100FF00FF00000018000000FF82
:1000DE00000000FF000000FF000000FF00FFFF0017
:1000EE0000FFFF0000FFFF0000FFFF0000FF0020E9
:1000FE0000FF002000FF002000FF0020000000FF96
:10010E00000000FF000000FF000000FF00FFFF00E6
:10011E0000FFFF0000FFFF0000FFFF0000FF0020B8
:10012E0000FF002000FF002000FF0020000000184C
:10013E000000FFFF0000FFFF0000FFFF0000FFFFB9
:10014E0000FF000000FF000000FF000000FF0000A5
:10015E000020FF000020FF000020FF000020FF0015
:10016E000000FFFF0000FFFF0000FFFF0000FFFF89
:10017E0000FF000000FF000000FF000000FF000075
:10018E000020FF000020FF000020FF000020FF00E5
:10019E000000002400FF00FF00FF00FF00FF00FF33
:1001AE0000FF00FF00FFFF0000FFFF0000FFFF0049
:1001BE0000FFFF000000FFFF0000FFFF0000FFFF39
:1001CE000000FFFF00FF00FF00FF00FF00FF00FF29
:1001DE0000FF00FF00FFFF0000FFFF0000FFFF0019
:1001EE0000FFFF000000FFFF0000FFFF0000FFFF09
:1001FE000000FFFF00FF00FF00FF00FF00FF00FFF9
:10020E0000FF00FF00FFFF0000FFFF0000FFFF00E8
:10021E0000FFFF000000FFFF0000FFFF0000FFFFD8
:10022E000000FFFF0000001400FFFFFF00FFFFFFB4
:10023E0000FFFFFF00FFFFFF00FFFFFF00FFFFFFBC
:10024E0000FFFFFF00FFFFFF00FFFFFF00FFFFFFAC
:10025E0000FFFFFF00FFFFFF00FFFFFF00FFFFFF9C
:10026E0000FFFFFF00FFFFFF00FFFFFF00FFFFFF8C
:10027E0000FFFFFF00FFFFFF0000002700FF00FF51
:10028E0000FF00FF00FF00FF00FF00FF00FF00FF68
:10029E0000FF00FF00FF00FF00FF00FF00FF00FF58
:1002AE0000FF00FF00FF40B000FF808000FFB04065
:1002BE0000FFFF0000FFFF0000FFFF0000FFFF0038
:1002CE0000FFFF0000FFFF0000FFFF0000FFFF0028
:1002DE0000FFFF0000FFFF0000A0FF400080FF8036
:1002EE000040FFB00000FFFF0000FFFF0000FFFF17
:1002FE000000FFFF0000FFFF0000FFFF0000FFFFF8
:10030E000000FFFF0000FFFF0000FFFF0040A0FF06
:10031E00008080FF00B040FF0000000C00FF0000D6
:10032E0000FF300000FF610000FFA00000FFFF0093
:10033E000080FF000000FF000020A060004169E186
:10034E000080308000FF00FF00FF00800000000AE8
:10035E0000FF000000BB00000099000000770000C5
:10036E0000330000000000000033000000770000A2
:10037E000099000000BB00000000000A00FF6100B1
:10038E0000BB5000009940000077200000331000A1
:10039E00000000000033100000772000009940009C
:1003AE0000BB50000000000A00FFFF0000BBBB00B6
:1003BE0000999900007777000033330000000000A9
:1003CE0000333300007777000099990000BBBB0023
:1003DE000000000A0000FF000000BB0000009900B2
:1003EE000000770000003300000000000000330022
:1003FE0000007700000099000000BB000000000A1A
:10040E00004169E1003060C0002040900010205093
:10041E0000081025000000000008102500102050D4
:10042E0000204090003060C00000000A00FF00FF76
:10043E0000BB00BB009900990077007700330033B2
:10044E000000000000330033007700770099009918
:04045E0000BB00BB24
:1012F9000222000041000E0041000F0041001000D1
:101309004100110041001200410013004100140086
:1013190041001500012400012500012600012700D4
:10132900012800012900012A00012B00012C0001DC
:101339002D00012E00012F00013000013100013282
:0A13490000013300013400013500FB
:100F8800E075F004A4F58285F083020D527808AF6D
:100F980021AE20AD1FAC1E120D1FE4AE07FD22E0EE
:100FA800FFE4FCFDFED3020D0EAF20AE1FAD1EAC5C
:100FB8001D22AF20AE1FAD1EAC1D228F218E208DAD
:100FC8001F8C1E7F02228F208E1F8D1E8C1D7F027C
:100FD800228F208E1F8D1E8C1D7F0222E4F0A3F02D
:100FE800A3F022E4120CA7ED1422E4F0A3F0C2AFA0
:100FF80022AB07E4FDEB640122F0AB16AA17A9188F
:1010080022F0AB16AA17A91822F0AB16AA17A9182E
:1010180022F0AB16AA17A91822AB17AA18A91922E9
:10102800AB17AA18A91922AB40AA41A94222AB487A
:0C103800AA49A94A22E4F0A3F0A3F02288
:101B4500E4FFD2B6000FBF01FBC2B6E4FF000FBF32
:021B550003FB90
:011B5700226B
:101B5800E4FFD2B6000FBF03FBC2B6E4FF000FBF1D
:021B680003FB7D
:011B6A002258
:0A1BDE00E4FFC2B600000FBF96FA44
:011BE80022DA
:0C000E00E4FFD2B700C2B7000FBF03FB35
:01001A0022C3
:101B6B00E4FFD2B7000FBF03FBC2B7E4FF000FBF08
:021B7B0003FB6A
:011B7D002245
:0A1BE900E4FFC2B700000FBF96FA38
:011BF30022CF
:0C1BB700E4FFD29000C290000FBF03FBBF
:011BC30022FF
:101B7E00E4FFD290000FBF03FBC290E4FF000FBF43
:021B8E0003FB57
:011B90002232
:0A1BF400E4FFC29000000FBF96FA54
:011BFE0022C4
:0C1BC400E4FFD29100C291000FBF03FBB0
:011BD00022F2
:101B9100E4FFD291000FBF03FBC291E4FF000FBF2E
:021BA10003FB44
:011BA300221F
:0A1BFF00E4FFC29100000FBF96FA48
:011C090022B8
:081950008F208E1F8D1E8C1DDF
:10195800E4AE1FAD1E7808120F9FEE30E705121B8C
:10196800588003121B45EE25E0FE0DBD08ECAF20A4
:10197800AE1FAD1EAC1D7810120F9FEE30E705129A
:101988001B588003121B45EE25E0FE0DBD08ECE553
:1019980020FFE4AE07FDEE30E705121B5880031266
:0A19A8001B45EE25E0FE0DBD08EC26
:0119B2002212
:10125100120FF9704AE521FFAE07EE30E705121BC8
:101261006B800312000EEE25E0FE0DBD08EC120F9F
:1012710095EE30E705121B6B800312000EEE25E0A0
:10128100FE0DBD08EC7810120F97EE30E705121B2A
:101291006B800312000EEE25E0FE0DBD08EC22EB83
:1012A10064027053E521FFE4AE07FDEE30E705125D
:1012B1001B6B800312000EEE25E0FE0DBD08ECAFA6
:1012C10021AE20AD1FAC1E7810120F9FEE30E70546
:1012D100121B6B800312000EEE25E0FE0DBD08EC23
:1012E100120F95EE30E705121B6B800312000EEE14
:0712F10025E0FE0DBD08EC35
:0112F80022D3
:10104400120FF97052E520FFAE07EE30E705121BD0
:101054007E8003121BB7EE25E0FE0DBD08EC120FD7
:10106400B17808120F9FEE30E705121B7E80031241
:101074001BB7EE25E0FE0DBD08EC120FB17810127F
:101084000F9FEE30E705121B7E8003121BB7EE257F
:10109400E0FE0DBD08EC22EB64027053E520FFE492
:1010A400AE07FDEE30E705121B7E8003121BB7EE80
:1010B40025E0FE0DBD08EC120FB17810120F9FEE63
:1010C40030E705121B7E8003121BB7EE25E0FE0DF0
:1010D400BD08EC120FB17808120F9FEE30E705122D
:0F10E4001B7E8003121BB7EE25E0FE0DBD08EC4E
:0110F30022DA
:1010F400120FF97052E520FFAE07EE30E705121B20
:10110400918003121BC4EE25E0FE0DBD08EC120F06
:10111400BA7808120F9FEE30E705121B9180031274
:101124001BC4EE25E0FE0DBD08EC120FBA781012B8
:101134000F9FEE30E705121B918003121BC4EE25AE
:10114400E0FE0DBD08EC22EB64027053E520FFE4E1
:10115400AE07FDEE30E705121B918003121BC4EEAF
:1011640025E0FE0DBD08EC120FBA7810120F9FEEA9
:1011740030E705121B918003121BC4EE25E0FE0D1F
:10118400BD08EC120FBA7808120F9FEE30E7051273
:0F1194001B918003121BC4EE25E0FE0DBD08EC7D
:0111A3002229
:0A11A4008F368D378B388A39893A6F
:1011AE00900016120FE4A3F0120D3290001AEEF01A
:1011BE00A3EFF0C2AFE4900016F0A3F0C3900017B7
:1011CE00E09536900016E094005056A3E02523FFDC
:1011DE00900016E03522FE900018F0A3EFF0A3E089
:1011EE00FCA3E0FD120CB9900018ECF0A3EDF0900A
:1011FE000018E0FEA3E07802C333CE33CED8F9ABAD
:10120E0038253AF9E5393EFA900004120D521219BA
:10121E0050900017E004F070A3900016E004F080E8
:10122E009B121BDED2AF0523E52370020522FFD3EE
:10123E0090001BE09F90001AE095225005E4F522E5
:02124E00F52386
:01125000227B
:0816C5008F158B178A18891993
:1016CD00E490001DF0A3F0AB1AAA1BA91C120C612B
:1016DD00B40107120FEB90000EF0C2AFE490001DA5
:1016ED00F090001DE0FFC395155033EF04FF9000FF
:1016FD000EE02F90001EF0121021120D3290001EE0
:10170D00E0D39F4005E0FEEE9FF012102190001EE9
:10171D00120F8812195090001DE004F080C3121BA7
:10172D00DED2AF90000EE0700D121021120D32EFCF
:0C173D001490000EF02290000EE014F05A
:01174900227D
:0814A7008F158B178A188919B3
:1014AF00E490001DF0A3F0AB1AAA1BA91C120C614B
:1014BF00B40107120FEB90000FF0C2AFE490001DC4
:1014CF00F090001DE0FFC395155036EF04FF90001C
:1014DF000FE02F90001EF0121028120D3290001EF8
:1014EF00E0D39F4005E0FEEE9FF012102890001E03
:1014FF00120F88120FC312125190001DE004F080DA
:10150F00C0121BE9D2AF90000FE0700D121028121D
:0F151F000D32EF1490000FF02290000FE014F047
:01152E00229A
:08152F008F3E8B408A41894286
:10153700E4900020F0A3F0AB43AA44A945120C6144
:10154700B40107120FEB900010F0C2AFE490002037
:10155700F0900020E0FFC3953E5036EF04FF900067
:1015670010E02F900021F012102F120D3290002161
:10157700E0D39F4005E0FEEE9FF012102F90002170
:10158700120F88120FCE121044900020E004F08052
:10159700C0121BF4D2AF900010E0700D12102F1282
:0F15A7000D32EF14900010F022900010E014F0BD
:0115B6002212
:0815B7008F468B488A49894ADE
:1015BF00E4900022F0A3F0AB4BAA4CA94D120C61A2
:1015CF00B40107120FEB900011F0C2AFE4900022AC
:1015DF00F0900022E0FFC395465036EF04FF9000D5
:1015EF0011E02F900023F0121036120D32900023CD
:1015FF00E0D39F4005E0FEEE9FF0121036900023DF
:10160F00120F88120FD91210F4900022E004F0800C
:10161F00C0121BFFD2AF900011E0700D12103612E6
:0F162F000D32EF14900011F022900011E014F032
:01163E002289
:081850008F158B168A17891809
:1018580090001D120FE4AB19AA1AA91B120C61B44F
:101868000109E4120CA790001204F0C2AF90001214
:10187800E00490001F121001120D3290001FE0D3F7
:101888009F4005E0FEEE9FF0E490001DF090001DE3
:10189800E0C39515501412100290001F120F881201
:1018A800195090001DE004F080E3121BDED2AF90C7
:1018B8000012E004121001120D92900012120FA7EC
:0718C8005005E4900012F04E
:0118CF0022F6
:08174A008F158B168A17891810
:1017520090001D12103DAB19AA1AA91B120C61B4FC
:101762000109E4120CA790001304F0C2AF90001319
:10177200E00490001F121009120D3290001FE0D3F6
:101782009F4005E0FEEE9FF0E490001DF090001DEA
:10179200E0C39515501712100A90001F120F8812FD
:1017A2000FC312125190001DE004F080E0121BE9F9
:1017B200D2AF900013E004121009120D92900013A0
:0A17C200120FA75005E4900013F089
:0117CC0022FA
:0817CD008F158B168A1789188D
:1017D50090001D12103DAB19AA1AA91B120C61B479
:1017E5000109E4120CA790001404F0C2AF90001494
:1017F500E00490001F121011120D3290001FE0D36B
:101805009F4005E0FEEE9FF0E490001DF090001D66
:10181500E0C39515501712101290001F120F881271
:101825000FCE12104490001DE004F080E0121BF46E
:10183500D2AF900014E004121011120D9290001412
:0A184500120FA75005E4900014F004
:01184F002276
:08163F008F158B168A1789181C
:10164700E490001DF0A3F0A3F0AB19AA1AA91B128E
:101657000C61B40109E4120CA790001504F0C2AFA5
:10166700900015E00490001F121019120D3290001F
:101677001FE0D39F4005E0FEEE9FF0E490001DF0D1
:1016870090001DE0C39515501712101A90001F12F5
:101697000F88120FD91210F490001DE004F080E0BB
:1016A700121BFFD2AF900015E004121019120D9211
:0D16B700900015120FA75005E4900015F0EB
:0116C4002203
:0A1AD6008F4E8D4F8B508A518952BC
:101AE000900024120FF2900024F0900024E0FFC335
:101AF000954E5019E54F2FA3F0AB50AA51A95212A1
:101B00000F88121950900024E004F080DD121BDED3
:021B1000D2AF52
:011B120022B0
:0A1A96008F538D548B558A568957E3
:101AA000900026120FF2900026F0900026E0FFC36F
:101AB0009553501CE5542FA3F0AB55AA56A95712C5
:101AC0000F88120FC3121251900026E004F080DA42
:051AD000121BE9D2AF7A
:011AD50022EE
:0A1A10008F588D598B5A8A5B895C50
:101A1A00E4900028F0A3F0C2AF900028F0900028CC
:101A2A00E0FFC39558501CE5592FA3F0AB5AAA5BA7
:101A3A00A95C120F88120FCE121044900028E004FD
:081A4A00F080DA121BF4D2AFA8
:011A52002271
:0A1A53008F5D8D5E8B5F8A608961F4
:101A5D00E490002AF0A3F0C2AF90002AF090002A83
:101A6D00E0FFC3955D501CE55E2FA3F0AB5FAA6050
:101A7D00A961120F88120FD91210F490002AE004F8
:081A8D00F080DA121BFFD2AF5A
:011A9500222E
:060698008B628A63896495
:10069E00C2AF900008E0603DE52A04F524D3940A29
:1006AE00400674F62524F524E52425E025E0245A99
:1006BE00F582E43403120874052AE52AC3940A402D
:1006CE001DE4F52A0530E53094024012E4F5309031
:1006DE000008F08009E4F52A90035E12088F90005E
:1006EE0009E0603DE52B04F525D3940A400674F627
:1006FE002525F525E52525E025E02436F582E4348B
:10070E0004120874052BE52BC3940A401DE4F52B47
:10071E000531E53194024012E4F531900009F08084
:10072E0009E4F52B90043A12088F90000AE0603D20
:10073E00E52C04F526D3940A400674F62526F526F4
:10074E00E52625E025E0240AF582E4340412087D2E
:10075E00052CE52CC3940A401DE4F52C0532E53238
:10076E0094024012E4F53290000AF08009E4F52C70
:10077E0090040E12089690000BE0603DE52D04F5F6
:10078E0027D3940A400674F62527F527E52725E09A
:10079E0025E024DEF582E4340312087D052DE52DD7
:1007AE00C3940A401DE4F52D0533E533940240123F
:1007BE00E4F53390000BF08009E4F52D9003E2127E
:1007CE00089690000CE0603DE52E04F528D3940ABF
:1007DE00400674F62528F528E52825E025E024B204
:1007EE00F582E43403120886052EE52EC3940A40E2
:1007FE0020E4F52E0534E53494024015E4F53490EA
:10080E00000CF0800CE4F52E9003B6120D82121936
:10081E005090000DE0603DE52F04F529D3940A4079
:10082E000674F62529F529E52925E025E02486F527
:10083E0082E43403120886052FE52FC3940A402064
:10084E00E4F52F0535E53594024015E4F5359000B5
:10085E000DF0800CE4F52F90038A120D82121950C0
:05086E00121BDED2AFF9
:1008730022F583120D8212195022F583120D821272
:10088300195022F583120D8212195022120D821271
:0A089300195022120D821219502292
:101353004100040041000500410006004100070070
:10136300410008004100090041000A0041000B0050
:1013730041000C0041000D0041000000410001004C
:0E1383004200020000016500016600016700E3
:101B13007464F090001CE004F0751900751A0075E8
:101B23001B007BFF22E4900004F0A3F0A3F0A3F0DA
:101B330022900002E4F0A322751900751A00751BA8
:021B430000227E
:1018D0007F03900001E070607402F020B21130B319
:1018E0000E0565E565D3940A40107565A1800BE58A
:1018F00065B4A103121B28E4F56530B21120B30EC4
:101900000566E566D3940A40107566A1800BE5660E
:10191000B4A103121B28E4F56630B21130B30E05F2
:1019200067E567D3940A40107567A1800BE567B43B
:10193000A103121B28E4F567E565B4A1037F01222A
:0F194000E566B4A1037F0222E567B4A1027F032D
:01194F002275
:1004620090001C7401F0E4F508F509750A01750B9A
:1004720001F50CF50DF50EF50FF510F511F512F568
:1004820013F5141219B3121BA4D2AFD2A9121BDE98
:10049200121BDE121BDE90001C7401F0900002E0C1
:1004A2007002A3E07027E50AB40108121B3474C875
:1004B200F08018E50AB40208121B347432F0800B83
:1004C200E50AB40306121B347464F0B29790001C60
:1004D200E064017025900004E070C1121B137A00E1
:1004E20079861206787A0079861206677A0079860A
:1004F2001206417A0079860205D690001CE0640259
:100502007025900004E07094121B137A0079521245
:1005120006787A0079521206677A007952120641F9
:100522007A0079520205D690001CE06403703A907A
:100532000004E0600302049E121B137A00791E7FFE
:1005420028121850751900751A00751B007BFF7A66
:1005520000791E7F2812174A121B3B7A00791E125D
:1005620006547A00791E0205D6E50A6402701990D3
:100572000004E0600302049E1206067A02798612E3
:1005820006877A027986804CE50A6401704E9000F3
:1005920004E0600302049E740CF0751A00751B00DF
:1005A200751C007BFF7A01793A7D017F321216C5F4
:1005B200751A00751B00751C007BFF7A0079D67DC9
:1005C200017F2C1214A7121B3B7A0079D612065413
:1005D2007A0079D67F2812163F02049EE50A640348
:1005E200600302049E900004E0600302049E12066F
:1005F200067A0279321206877A0279327F28121637
:040602003F02049E11
:10060600740FF0751A00751B00751C007BFF7A01CC
:10061600799E7D017F0D1216C5751A00751B007532
:100626001C007BFF7A01799E7D017F241214A77539
:100636001900751A00751B007BFF227BFF7F2812AD
:1006460017CD751900751A00751B007BFF227BFFFD
:100656007F281217CD751900751A00751B007BFFD0
:10066600227BFF7F2812174A751900751A00751B21
:1006760000227F28121850751900751A00751B0084
:10068600227F281217CD751900751A00751B007B7D
:02069600FF2241
:03000B0002141EBE
:10141E00C0E0C083C082C0D0900004E0600214F02F
:10142E00900005E0600214F0900006E0600214F0F7
:10143E00900007E0600214F0900002E07002A3E05A
:10144E00600E900003E024FFF0900002E034FFF005
:10145E00900008E0600214F0900009E0600214F0C1
:10146E0090000AE0600214F090000BE0600214F0AD
:10147E0090000CE0600214F090000DE0600214F099
:10148E00900001E0600214F0900000E0600214F0A1
:09149E00D0D0D082D083D0E0321E
:03001B00020003DD
:0100030032CA
:0D1BD100900001020C7A7516FFE4F5152254
:100E0C00EFD3940540037F0122120C61FED39403AF
:100E1C0040037F0222EF7035EE7008121BD1F452A2
:100E2C00935294120C61B40108121BD14293F452E8
:100E3C0094120C61FEB40207121BD142934294EE41
:100E4C00B4030A121BD1FEF45293EE4294EF6401E8
:100E5C007037120C61FE7008121BD1F45291529231
:100E6C00EEB40108121BD14291F45292120C61B4EF
:100E7C000207121BD142914292120C61B4030A1266
:100E8C001BD1FEF45291EE4292EF64027037120CB9
:100E9C0061FE7008121BD1F452955296EEB4010803
:100EAC00121BD14295F45296120C61B40207121B1C
:100EBC00D142954296120C61B4030A121BD1FEF476
:100ECC005295EE4296EF64037037120C61FE700877
:100EDC00121BD1F452B152B2EEB40108121BD14222
:100EEC00B1F452B2120C61B40207121BD142B142DE
:100EFC00B2120C61B4030A121BD1FEF452B1EE42D1
:100F0C00B2EF64047037120C61FE7008121BD1F43E
:100F1C0052B352B4EEB40108121BD142B3F452B422
:100F2C00120C61B40207121BD142B342B4120C6111
:100F3C00B4030A121BD1FEF452B3EE42B4EF6405B3
:100F4C007037120C61FF7008121BD1F452C952CACF
:100F5C00EFB40108121BD142C9F452CA120C61B48D
:100F6C000207121BD142C942CA120C61B4030A1205
:0C0F7C001BD1FFF452C9EF42CA7F0022D3
:1019B300121BD7FB7A0079157F01120E0CD290D23D
:1019C30091D292D293D294D295D296D297121BD718
:1019D3007F02120E0CD2A0D2A1D2A2D2A3D2A4D241
:1019E300A5D2A6D2A7121BD77F03120E0CD2B0D258
:1019F300B1D2B2D2B3D2B4D2B5D2B6D2B775163051
:0C1A0300E4F5157F05120E0CD2CCD2CDFC
:011A0F0022B4
:101BA400538E7F5389F0758AE5758CBEC28DD28CB5
:031BB400D2B92281
:0300000002139256
:0C139200787FE4F6D8FD7581670213D95E
:100C6100BB010689828A83E0225002E722BBFE0291
:090C7100E32289828A83E49322C4
:100C7A00BB010CE58229F582E5833AF583E022502F
:100C8A0006E92582F8E622BBFE06E92582F8E22279
:0D0C9A00E58229F582E5833AF583E4932293
:100CA700BB010689828A83F0225002F722BBFE012C
:020CB700F32226
:100CB900BC000BBE0029EF8DF084FFADF022E4CC1F
:100CC900F875F008EF2FFFEE33FEEC33FCEE9DECE8
:100CD900984005FCEE9DFE0FD5F0E9E4CEFD22ED2E
:100CE900F8F5F0EE8420D21CFEADF075F008EF2F78
:100CF900FFED33FD4007985006D5F0F222C398FD69
:050D09000FD5F0EA2205
:100D0E00EB9FF5F0EA9E42F0E99D42F0E89C45F03B
:010D1E0022B2
:100D1F00E8600FECC313FCED13FDEE13FEEF13FFB2
:030D2F00D8F122D6
:100D3200BB010789828A83020DBE5005E9F8020DC4
:100D4200B2BBFE05E9F8020DCA89828A83020D82CE
:100D5200BB010DE58229F582E5833AF583020DBEDA
:100D62005007E92582F8020DB2BBFE07E92582F899
:100D7200020DCAE58229F582E5833AF583020D82E6
:100D8200E493FC740193FD740293FE740393FF22B7
:100D9200BB010789828A83020DE35005E9F8020D3F
:100DA200D6BBFE05E9F8020DEF89828A83020DFCAB
:10139E00020462E493A3F8E493A34003F68001F2FF
:1013AE0008DFF48029E493A3F85407240CC8C33350
:1013BE00C4540F4420C8834004F456800146F6DF1F
:1013CE00E4800B01020408102040809012F9E47EA4
:1013DE00019360BCA3FF543F30E509541FFEE49314
:1013EE00A360010ECF54C025E060A840B8E493A3DB
:1013FE00FAE493A3F8E493A3C8C582C8CAC583CA06
:10140E00F0A3C8C582C8CAC583CADFE9DEE780BEBD
:01139100005B
:0C0DB200E6FC08E6FD08E6FE08E6FF226D
:0C0DBE00E0FCA3E0FDA3E0FEA3E0FF22A8
:0C0DCA00E2FC08E2FD08E2FE08E2FF2265
:0D0DD600E6FB08E6F908E6FA08E6CBF8228D
:0C0DE300E0F8A3E0F9A3E0FAA3E0FB2293
:0D0DEF00E2FB08E2F908E2FA08E2CBF82284
:100DFC00E493F8740193F9740293FA740393FB224D
:00000001FF
